:020000020000FC
:100000000FED0DBF05E01BD106B30270D9F31395B8
:1000100018320CF4F7CF05E007BB01E008BB0FE88E
:100020000ABB00E00BBB10E020E030E040E050E015
:1000300006B3027019F4442755270DC04395483282
:1000400008F020C0423038F0513029F051E01395CB
:10005000163009F41127103009F432D0113009F4A8
:100060003CD0123009F45ED0133009F470D0143053
:1000700009F492D0153009F4B4D0022FCBD005E0AA
:10008000DED0D6CF01E2C6D002E3D9D002E1C2D0A1
:1000900002E3D5D00CE0BED002E3D1D000E0BAD06C
:1000A00002E3CDD0112705E0CAD006B3027031F4C7
:1000B00013951430C0F300E008BBFDCF1127F3CF38
:1000C000303011F420E004C0353011F42FE300C0CB
:1000D0003395373008F033270895303011F420E09D
:1000E0001CC0333011F427E018C0343011F420E084
:1000F00014C0353011F427E010C0363011F420E080
:100100000CC0393011F428E308C03A3011F420E073
:1001100004C03B3011F428E300C033953C3008F0B4
:1001200033270895032F363034F421E0003051F0A6
:10013000220F0A95FBCF20E20650003019F02695D9
:100140000A95FBCF33953C3008F0332708953030C3
:1001500011F420E01CC0333011F42CE018C034300E
:1001600011F420E014C0353011F42CE010C036300A
:1001700011F420E00CC0393011F423E308C03A3008
:1001800011F420E004C03B3011F423E300C03395A8
:100190003C3008F033270895303011F420E01CC0C3
:1001A000353011F420E318C0373011F420E014C0CA
:1001B0003C3011F42CE010C03E3011F420E00CC0B3
:1001C000333111F423E008C0353111F420E004C0CC
:1001D0003A3111F42CE000C033953C3108F033275C
:1001E0000895303011F421E210C0313011F422E1D1
:1001F0000CC0323011F42CE008C0333011F422E18D
:1002000004C0343011F421E200C03395353008F0D9
:1002100033270895D898D998DA98DB98DF98C29850
:1002200000FDD89A01FDD99A02FDDA9A02FDDA9A08
:1002300003FDDB9A04FDDF9A05FDC29A08950F9332
:100240001F932F9311272CE01A95F1F72A95E1F7C8
:0E0250002CE00A95C9F72F911F910F91089588
:00000001FF
